:020000040800F2
:1000000068080020A9020008CD2200085D21000830
:10001000C92200085D0B0008F12300080000000061
:10002000000000000000000000000000D5220008D1
:100030006D0B000800000000D1220008D922000842
:10004000C3020008C3020008C3020008C30200087C
:10005000C3020008C3020008C3020008C30200086C
:10006000C3020008C3020008C3020008C30200085C
:10007000C3020008C3020008C3020008C30200084C
:10008000C3020008C3020008C30200080000000009
:10009000000000000000000000000000C302000893
:1000A000C3020008C3020008C3020008C30200081C
:1000B000F1220008FD220008C3020008C302000864
:1000C000C3020008C3020008C3020008C3020008FC
:1000D000C3020008C3020008C302000800000000B9
:1000E000C3020008C3020008C302000800000000A9
:1000F000000000000000000000000000C302000833
:1001000000000000C3020008C3020008C302000888
:1001100000000000000000000000000000000000DF
:10012000610B0008C3020008C3020008C3020008F4
:10013000C3020008000000000000000000000000F2
:10014000000000000000000000000000C3020008E2
:10015000C3020008C3020008C3020008C30200086B
:10016000C3020008C30200080000000000000000F5
:10017000000000000000000000000000000000007F
:1001800000000000C30200080000000000000000A2
:10019000C302000800F002F800F077F814A696E811
:1001A000000CB244B344DA4501D100F06EF8BAE86D
:1001B0000F000FA696E83000A5EB040504EB060738
:1001C000AAEB0704A7F101074FEA15154FEA34140B
:1001D000A4F10104AC4201D300F057F813F0010F71
:1001E00018BFFB1A43F0010300F001F8DBE71847E2
:1001F0009C240000BC240000103A24BF78C878C1B9
:10020000FAD8520724BF30C830C144BF04680C601C
:1002100070470000704700000023002400250026DE
:10022000103A28BF78C1FBD8520728BF30C148BF59
:100230000B607047692900F04581642900F0428114
:10024000752900F03F816F2900F0D681782900F0F0
:10025000FD810368DB0928BF41F08001632900F0BC
:10026000AE83E32900F0C183002070471FB502F080
:10027000B5F900F019FC04000020002102F098F903
:10028000401C60601FBD10B510BD00F0E7FB1146BB
:10029000FFF7ECFF02F0AEF800F00AFC03B4FFF742
:1002A000F2FF03BC00F052FC0948804709480047B0
:1002B000FEE7FEE7FEE7FEE7FEE7FEE7FEE7FEE716
:1002C000FEE7FEE704480549054A064B7047000073
:1002D000DD2200089501000868020020680800205F
:1002E000680400206804002053EA020C00F06980D2
:1002F0002DE9F04B4FF00006002B1FBFB3FA83F53A
:1003000003FA05F424FA05F65E4012BF1643B2FA6A
:1003100082F502FA05F4C5F120051EBF22FA05FC9C
:1003200044EA0C04203556EA044C4FEA144418BF42
:10033000641C4FF000084FF00009904271EB030C71
:1003400039D3002919BFB1FA81F701FA07F6B0FADB
:1003500080F700FA07F6C7F120071EBF20FA07FC56
:1003600046EA0C062037B6FBF4FCA7EB0507103F66
:1003700007F01F0BCBF120062CFA06F60CFA0BFB4C
:1003800044BFB3460026202FA4BF5E464FF0000BAB
:100390005BEA060C08BF4FF0010B19EB0B0948EBA9
:1003A0000608ABFB027C06FB02CC0BFB03CCC01B9C
:1003B00071EB0C01C1E70B46024641464846BDE8D9
:1003C000F08B13B5084318BF4FF0FF300146AFF371
:1003D0000080BDE81C4070470FB41CB5074B06AA4F
:1003E0007B4469460090059800F0C7FA00206946F2
:1003F00000F0D6FA1CBC5DF814FB0000BD0500003F
:1004000070B5044685690068C10601D5302600E054
:100410002026C00707D070BDD4E90121304690479F
:10042000206A401C20626D1EF6D570BD70B5044672
:1004300085690078C00707D170BDD4E9012120206B
:100440009047206A401C20626D1EF6D570BD096879
:100450004A0501D540B27047C905FCD500B27047C6
:1004600009684A0501D5C0B27047C905FCD580B2FC
:10047000704770B50C460546012A05D028788006DD
:1004800000D5EA69002302E0012305E05B1C9342EA
:1004900002D2E05C0028F9D1A869E618C01AA86168
:1004A000286A184428622846FFF7AAFF04E0D5E925
:1004B000012114F8010B9047B442F8D32846FFF706
:1004C000B5FF70BD2DE9F04106460024106875297E
:1004D000314616A510D0FFF7BAFF002802DA4042D5
:1004E00013A507E031688A0701D512A502E0490784
:1004F00004D511A5012401E0FFF7B2FF00210A2273
:1005000006F1240709E0B0FBF2FCB0FBF2F302FBBA
:100510001C00303078541846491C0028F3D123467B
:100520002A463046BDE8F04100F0C9B9000000009D
:100530002D0000002B000000200000002DE9FF5FCF
:1005400015468A460446DFF8AC80F8440027D8E90F
:1005500000103E46CDE9001010E03AF816106A4649
:1005600002A800F04EFA411C07D02178890603D575
:10057000E269391891420DD80744761C207880062C
:1005800002D5E069B84205DDAE42E6DB3AF8160076
:100590000028E2D1A069C01BA0612046FFF730FF10
:1005A000D8E90010CDE90010002017E03AF8181043
:1005B0006A4602A800F025FAB0F1FF3F81460BD051
:1005C00000250DF1080B05E0D4E901211BF8050019
:1005D00090476D1C4D45F7D308F10100B0428046AD
:1005E000E4DB206A384420622046FFF71FFFBDE8A5
:1005F000FF9F0000AA20000070B504462146106845
:10060000FFF72EFF002104F1240505E000F00702AA
:100610003032C0086A54491C0028F7D120680023F2
:1006200008A2050708D500F02000084304D0E069BF
:10063000012305A2401EE0612046BDE8704000F0A5
:100640003EB90000000000003000000070B5044614
:100650000D4621461068FFF703FF2188090502D5E2
:100660000F4A7A4402E00E4A7A440E32002104F125
:10067000240305E000F00F060009965D5E54491C56
:100680000028F7D120780023000704D5702D02D070
:1006900009B1022311322046BDE8704000F00FB9C5
:1006A0009A1F00002DE9F05F894604464FF0000ACA
:1006B000DFF874B1FB44C0F820A02046E168884709
:1006C000002874D0252806D0D4E901219047206A5B
:1006D000401C2062F1E700265F462046E16888471B
:1006E0002028054607DB312D05D2781910F8200C9B
:1006F00008B10643F1E7B00701D526F00406C4F8B7
:100700001CA00027C4F818A02A2D09D0284601F003
:1007100047FF38B304EB8708303DC8F8185019E09C
:1007200059F8041B204604EB87029161E168884771
:10073000012F054618D1E069002820DA26F02006AE
:100740001DE0D8F8180000EB800005EB40003038C1
:10075000C8F818002046E1688847054601F020FFE8
:100760000028EED1012F0AD02E2D08D12046E168B5
:1007700088477F1C0546022F46F02006C4DBA0698F
:10078000002803DA404246F00106A061F00701D0DC
:1007900026F010066C2D0BD0682D09D04C2D39D0C9
:1007A0006A2D35D0742D35D07A2D33D016E038E04F
:1007B000E1682F4620468847B842054609D16C2F8C
:1007C00026D04FF48060E1680643204688470546FE
:1007D00004E06C2F1AD04FF4807006430DB3A5F1DE
:1007E0004100192802D8203546F400664A462946B9
:1007F000204626604E46FFF71DFD80B101280BD034
:10080000F61D26F0070000F1080956E74020E4E74E
:100810008020D8E70020D6E706F104094DE72846F6
:1008200052E7206ABDE8F09F701F000010B5431C1E
:1008300002E010F8011B71B18107FAD14FF00132CB
:1008400002C88C1A8C4314EAC211F9D0C01A0A06E5
:1008500003D0C01E10BDC01A10BD0A0401D0801EF6
:1008600010BD0902FCD0401E10BD4FF0000200B5C3
:10087000134694469646203922BFA0E80C50A0E8C3
:100880000C50B1F12001BFF4F7AF090728BFA0E871
:100890000C5048BF0CC05DF804EB890028BF40F83D
:1008A000042B08BF704748BF20F8022B11F0804F7F
:1008B00018BF00F8012B70477047704770472DE94B
:1008C000F0470D4699469246044600F12408016817
:1008D000880604D5E06921F01001216000E00120C4
:1008E000A84201DD471B00E00027A1697A1902EB4D
:1008F0000900081AA0612078C00602D42046FFF73C
:100900007FFD002608E0D4E901211AF8060090478F
:10091000206A401C761C20624E45F4DB2078C0061D
:100920000AD52046FFF76CFD06E0D4E9012130200E
:100930009047206A401C2062381EA7F10107F4DCB2
:1009400007E0D4E9012118F805009047206A401C0F
:100950002062281EA5F10105F3DC2046FFF766FDA5
:100960002078000602D50220BDE8F0870120FBE7D1
:1009700001694A1C02610878704700B58FB0CDE963
:1009800001310021059105497944CDE90310114653
:100990006846FFF787FE0FB000BD0000E5FFFFFFD0
:1009A0000A6802F8010B0A60704710B5436913B179
:1009B000AFF3008001E0FFF75CFD012010BD12786D
:1009C00000F124010A7000224A700122EDE711684B
:1009D0004FF0FF32E9E710B5436913B1AFF3008080
:1009E00001E0FFF7ABFD012010BD128800F12401EA
:1009F00082840022C2840122EDE711684FF0FF32A9
:100A0000E9E72DE9F04116460C46054600F01EF8D0
:100A1000036893F80101012807D0FF2C12D8185D54
:100A200080B101202C70BDE8F081D3F80701324677
:100A3000214603F20713C7182846BC46BDE8F0411B
:100A4000002360474FF0FF30EDE7000010B500F0E5
:100A50002BF8001D10BD00BF591B0000754600F0AB
:100A600031F8AE4605006946534620F0070085463A
:100A700018B020B5FFF726FCBDE820404FF0000677
:100A80004FF000074FF000084FF0000BAC46ACE809
:100A9000C009ACE8C009ACE8C009ACE8C00921F065
:100AA00007018D4670470000004870473000002065
:100AB00010B50446AFF300802046BDE81040FFF7B4
:100AC000EDBB00000048704710000020000000004F
:100AD00030B44FF0013C50F8042B51F8043BCCFAF1
:100AE00052F4D51A20D1FCB950F8042B51F8043B2C
:100AF000CCFA52F4D51A17D1B4B950F8042B51F8E6
:100B0000043BCCFA52F4D51A0ED16CB950F8042B30
:100B100051F8043BCCFA52F4D51A05D1002CDAD0A6
:100B200030BC4FF00000704729BAB1FA81F111F0E2
:100B30001801D1F120008440F2D1CA40CB4012F01C
:100B4000FF0213F0FF0330BCD01A70470149182090
:100B5000ABBEFEE72600020070470000FEE7000083
:100B600040F22810C2F2000000F0D4BA7047000032
:100B700072B600BFFEE7000070B581B0002200929F
:100B800090F83C20012A03D1022001B070BD00BFC3
:100B9000D1F800E001221FFA8EFC4FEA4C0380F8E6
:100BA0003C200EEB4E0213FA8EF31024BEF1090F17
:100BB00088BFA3F11E0288BF0C24036807251E59B5
:100BC000954026EA05051D518D681E5905FA02F269
:100BD00032431A514968062906D801EB81014A1FA0
:100BE000194651F8345F0EE00C2901EB810105D85C
:100BF000A1F12302194651F8305F04E0A1F141024E
:100C0000194651F82C5F1F24944025EA04040C6017
:100C10000CFA02F20C6842F2043CC4F2010C2243CA
:100C2000ACF54174A3420A603ED1BEF1120F07D168
:100C3000DCF8001041F48001CCF8001034E000BF73
:100C40002EF0010110292FD1DCF80010BEF1100F99
:100C500041F40001CCF8001026D140F20801C2F2A4
:100C6000000109684DF68362C4F21B32A1FB021237
:100C7000910C01EB8101490000910099A1B100990B
:100C800001390091009979B10099013900910099D9
:100C900051B1009901390091009929B100990139A8
:100CA000009100990029EAD1002180F83C10002031
:100CB00001B070BD0068C06C70470000002804BF20
:100CC0000120704710B5016C00293DD0016CC906A8
:100CD00045D4016C41F202129143023142F20432D6
:100CE0000164C4F20102116821F4403111601368FB
:100CF00090E812102343D0F810E013604A680124F2
:100D000022F480724A604A68C0F6007442EA0E22F9
:100D10004A604A6822F040724A604A6842EA0C021D
:100D20004A608A6822F400628A60C2688B681A434B
:100D30008A60826A8B68A24223F070638B608B6842
:100D400010D123F0405216E0044600F065F820462A
:100D50000021616484F83C10016CC906B9D50121F9
:100D600053E000BF1A438A608A6822F040528A60CA
:100D7000C26A8B681A438A608A6822F002028A601B
:100D80008A68037E90F8204042EA43028A604A68FB
:100D900084B142F400624A604A684EF2000322F4D1
:100DA00060424A60426ACFF6FF734C6803EB4232FE
:100DB000224301E022F400624A60CA6A40F2000C59
:100DC00022F47002CA62C3694269CFF6F07CCC6A31
:100DD0000CEB03532343CB628B6823F400738B60CB
:100DE00090F830308C6844EA43238B608B6823F49E
:100DF00080638B608B6843EA82228A6000214164B1
:100E0000026C012363F301020264002280F83C209B
:100E1000BDE810400846704770B586B0044642F2FF
:100E200000002168C4F20100002681420596CDE948
:100E300003660296019601D006B070BD43F63001FC
:100E40000096C4F202014A6900F5604042F48072E3
:100E50004A614A6902F480720092009A00960A6818
:100E600042F001020A60096801F001010091009955
:100E7000132101910321CDE9021601A900F0F2FA34
:100E800040F2281546F21040C2F20005C4F20200FA
:100E90004FF48061C5E9000605F110004FF40062CF
:100EA0004FF400534FF4807C80E80E104FF4003074
:100EB000C5E908062846C5E9026600F00DFA0028D3
:100EC00018BFFFF755FEA563AC6306B070BD000008
:100ED00070B5044600680D468268520544BF8068BC
:100EE0005FEAC05038D400F093FB21680A6892078B
:100EF00049D40646681C3CD0DDB90868800721D576
:100F0000086880073FD4086880071BD508688007F9
:100F100039D40868800715D50868800733D4086875
:100F200080070FD508688007E7D52CE008688007A0
:100F300029D400F06DFB801B2168A842F6D908680F
:100F40008007F3D4206C40F004002064002084F873
:100F50003C00032070BD00BF206C40F020002064E6
:100F6000002084F83C00012070BD00BF08688007A5
:100F700009D40868800706D4086880075CBF086841
:100F80005FEA8070F2D56FF012000860206C40F4C8
:100F900000702064886810F0405F01D0002070BDB0
:100FA000207E0028FAD1C86A10F4700F02D0886839
:100FB0004005F3D4206C20F480702064206CC004C1
:100FC000ECD4206C40F001002064002070BD0000D3
:100FD00010B581B00021009190F83C10012903D197
:100FE000022001B010BD00BF0468012180F83C1050
:100FF000214651F8083FDB0729D10B684DF6836283
:1010000043F001030B6040F20803C2F200031B68C7
:10101000C4F21B32A3FB02239A0C02EB42020092A1
:10102000009AA2B1009A013A0092009A7AB1009A0D
:10103000013A0092009A52B1009A013A0092009A45
:101040002AB1009A013A0092009A002AEAD10A686D
:10105000036CD2070CD143F01001016400F144018C
:1010600001200A6810430860002001B010BD00BFD5
:1010700040F2017223EA020202F5807202646268A1
:10108000520504D5026C012363F30D320264026C35
:101090004FF0000C0023D20444BF426C22F0060340
:1010A00042F2000E436480F83CC06FF02200C4F2AC
:1010B000010E2060DEF80403C00609D074450BD190
:1010C000DEF8080010F0405F06D14FF08040C8E71E
:1010D000086810F0405FF8D0002001B010BD00009B
:1010E00090F83C10012904BF0220704701688A680B
:1010F00022F001028A608968C90705D1016C41F2BA
:101100000112914301310164002180F83C1000205C
:1011100070470000F0B581B00021009140F2080155
:10112000C2F200010B68D0E9166148F2B5153768C4
:101130000822C1F64E358A403A42A3FB05350CD051
:1011400003681C68640708D51C6824F004041C604C
:10115000B260426D42F00102426501228A403A4289
:1011600008D003685B691B0604D5B260426D42F08B
:101170000202426504228A403A4208D003681B6892
:101180009B0704D5B260426D42F004024265102212
:101190008A403A4219D001680B681B0715D5B26026
:1011A0000B680A685B0309D4D20509D40A6822F0E7
:1011B00008020A60016C29B907E000BF110341D49D
:1011C000016C11B1044688472046C26D202101FA06
:1011D00002F33B4243D001680F68FF063FD5B3607E
:1011E00090F835700B68052F1CD123F016030B60A7
:1011F0004B6923F080034B61036C0BB9836C1BB10B
:101200000B6823F008030B603F219140B16001217E
:1012100080F83510016D0022002980F8342054D167
:1012200058E000BF0A685B0310D4D20512D40A68E4
:1012300022F010020A60012180F83510002180F8A8
:10124000341007E0816C0029BCD1BEE7110301D442
:10125000416C00E0C16B11B1044688472046416DE6
:10126000C1B3416DC9072ED0052180F83510016842
:10127000AA0A0B6823F001030B60009B0133934221
:1012800000931AD80B68DB0717D0009B01339342F9
:10129000009312D80B68DB070FD0009B01339342F9
:1012A00000930AD80B68DB0707D0009B01339342F9
:1012B000009302D80B68DB07DFD1012180F83510DD
:1012C000002180F83410C16C21B101B0BDE8F040BC
:1012D000084700BF01B0F0BD2DE9F041044600F021
:1012E00097F9ECB10546022084F83500002021680A
:1012F00084F83400086820F001000860216808685C
:10130000C00711D000F084F9401B0528F6D9032549
:1013100020230320636584F83550BDE8F08100BFC9
:101320000120BDE8F08100BF086848F23F02CFF21B
:101330001002D4E9013500EA020C04F10C0898E827
:10134000C10143EA0C032B431843D4E9072E304371
:1013500038431043626A40EA0E00042A40EA080358
:101360001CD1206BD4E90A2E40EA0E001843086015
:101370004869BEF1000F20F0030040EA020040F08F
:10138000040C11D0B8F5005F36D0B8F1000F45D18C
:10139000022A46D0012A3BD032B942E00B604869AC
:1013A00020F0070040EA020C01F0F8004AF6AB22F8
:1013B0001038CAF6AA22A0FB02231A0942F251638E
:1013C000C1F814C0C0F600039A5C40F2FF335F28F6
:1013D0004FF03F0021EA030100FA02F088BF043118
:1013E000C4E916128860002301250020636584F893
:1013F0003550BDE8F08100BF032AD5D80125402330
:101400000120DFE802F0030E030500BF82E700BF02
:10141000AEF1C070B0FA80F0400904E0032A04D3B2
:10142000C2D1CEF300600028BED0012540230120A8
:10143000636584F83550BDE8F0810000B0B504461E
:1014400000F0E6F8054640F20000C2F20000007825
:10145000611C18BF044400BF00F0DAF8401BA04232
:10146000FAD3B0BD2DE9F04F83B000F1200200F1B6
:101470003E4741F20005009207F1FF77C4F20205F2
:1014800007224FEAB726A84208BF042200254FF0E2
:1014900000084FF00009042E38BF4FEAB72201922E
:1014A0000AE000BF09F1010908F10208B9F1100FC3
:1014B00005F1040500F0A2800F68012202FA09FE7E
:1014C00017EA0E0AEED0D1F804C003220CF003078D
:1014D0007E1E02FA08F4012E6FEA040B12D884680B
:1014E000CE6804EA0B0406FA08F6344384604468C4
:1014F00024EA0E06CCF3001404FA09F426434660ED
:1015000004E000BF032F01D103271EE0C6688C68EA
:1015100006EA0B0604FA08F42643022FC66014D12B
:101520006FF00302009E02EA590756F807C005F063
:101530001C040F220B69A2402CEA0202A3401A43AA
:10154000F251D1F804C00CF00307026807FA08F35F
:1015500002EA0B021A431CF4403F0260A2D00022B0
:1015600043F644030292C4F202031A6843F60044AD
:1015700042F480421A601A68C4F2010402F4804204
:101580000292029A29F003024FF6084C2244CFF649
:10159000FF7C52F80C3005F00C070F26BE40B34319
:1015A000019E06FA07F73B4342F80C30A2684B68ED
:1015B00042EA0A0743F60C4CDE0258BF22EA0A0749
:1015C000A760C4F2010CDCF800209E0242EA0A0780
:1015D00058BF22EA0A07CCF8007062689E0342EA0C
:1015E0000A0758BF22EA0A0767602268DB0342EA5B
:1015F0000A0758BF22EA0A07276053E703B0BDE88D
:10160000F08F0000002A08BF0904816170470000C4
:1016100040F26020C2F200000068704740F2000013
:1016200040F26021C2F20000C2F2000100780A68B4
:10163000104408607047000080B543F60040C4F2D3
:101640000200016841F400710160016841F48061A9
:101650000160016841F480710160032000F086F8A8
:101660000F2000F005F800F027F8002080BD0000F2
:1016700070B540F20006C2F2000640F2080132786E
:10168000C2F200014FF47A730968B3FBF2F2044628
:10169000B1FBF2F1084600F061FB0F2C4FF00105A1
:1016A00008D838B94FF0FF3021460022002500F05D
:1016B00031F87460284670BD82B0002043F64001C6
:1016C0000190C4F202014A6842F480424A604A68CA
:1016D00002F480420192019A0090086840F0805024
:1016E0000860086800F080500090009802B07047D1
:1016F000002848BF704700F01F01012202FA01F1E3
:101700001C2202EAD0004EF20012CEF200028150FA
:101710007047000010B54EF60C5CCEF2000CDCF801
:101720000030C3F3022E8EF00704042C28BF0424DB
:10173000BEF103034FF0FF3E0EFA04F438BF00235E
:10174000A14399400EFA03F39A43114300F00F02AC
:1017500000F160430901043A03F564436244002840
:1017600048BF02F10C03197010BD00004EF60C5179
:10177000CEF200010A684FF6FF031A4060F30A2216
:1017800042F0806040F0FD7008607047002804BFA0
:10179000012070472DE9F04143F60808C4F2020821
:1017A0000446D8F8F8030D4600F00700814207D937
:1017B00088F8F853D8F8F80300F00700A84277D16A
:1017C0002068810717D5410705D5D8F8001041F4E6
:1017D000E051C8F80010010705D5D8F8001041F411
:1017E0006041C8F80010D8F80010A26821F0F0019C
:1017F0001143C8F80010C00740D1D8F8F80300F032
:101800000700854207D288F8F853D8F8F80300F0AB
:101810000700A8424CD12068410707D5D8F800102E
:10182000E26821F4E0511143C8F80010000708D520
:10183000D8F80000216920F4604040EAC100C8F8EF
:10184000000000F07DF8D8F8001042F23962C1F3D0
:101850000311C0F60002515C40F2080220FA01F1C7
:1018600040F20400C2F200000068C2F200021160FF
:10187000FFF7FEFE0020BDE8F08100BF6068811E1A
:10188000022907D258F8081C89015CBF0120BDE875
:10189000F08111E0012807D158F8081C89035CBFCA
:1018A0000120BDE8F08107E058F8081C890703D43F
:1018B0000120BDE8F08100BFD8F8001021F003013D
:1018C0000843C8F80000FFF7A3FE064641F2883738
:1018D000D8F80000616800F00C00B0EB810F8CD0EC
:1018E000FFF796FE801BB842F2D90320BDE8F081D5
:1018F00040F2080043F60801C2F20000C4F20201FF
:101900000068096842F24962C1F38221C0F6000210
:10191000515CC8407047000040F2080043F60801DF
:10192000C2F20000C4F202010068096842F2496292
:10193000C1F34231C0F60002515CC840704700005C
:1019400010B543F60404C4F202046168C1F38101D6
:1019500042F20040C0F2F400DFE801F002040A02A3
:1019600010BD00BF47F64000C0F27D1010BD00BFA3
:10197000206821682368490247F64001C0F27D11C2
:1019800000F03F02C3F388105CBF42F20041C0F296
:10199000F401A1FB00010023FEF7A6FC216802224E
:1019A000C1F3014102EB4101B0FBF1F010BD0000B9
:1019B000002804BF012070472DE9F04182B00446A1
:1019C000007843F60006C007C4F202060CD0B068E7
:1019D00000F00C00042840F081803068800303D5BB
:1019E0006068002800F06881207880071BD5B06807
:1019F00010F00C0F09D0B06800F00C00082840F07F
:101A000087807068400200F183803068800703D5CA
:101A1000E068012840F050813068216920F0F8002A
:101A200040EAC10030602078000713D420784007D6
:101A30002AD4A569002D00F03A81B06800F00C00AE
:101A4000082840F0A580012D40F00E81012002B051
:101A5000BDE8F0816069002800F082800020C4F2B7
:101A600047200121C0F8801EFFF7D2FD054600BFC8
:101A7000706F8007DAD4FFF7CBFD401B0228F7D93F
:101A8000032002B0BDE8F081306C5FEAC0080AD4E0
:101A900000200190306C40F080503064306C00F0D9
:101AA00080500190019847F20007C4F2000738689F
:101AB000C00547D4386840F480703860FFF7A8FD4F
:101AC000054600BF3868C0053CD4FFF7A1FD401BA8
:101AD0000228F7D9032002B0BDE8F081B06800F019
:101AE0000C00082803D1706840023FF576AF6168AA
:101AF0003068B1F5803F07D0B1F5A02F40F09A8053
:101B000040F480203060306840F4803030609AE0EB
:101B1000E068002840F20000C4F247205CD00121B8
:101B20000160FFF775FD0546306880073FF574AF2B
:101B3000FFF76EFD401B0228F6D9032002B0BDE876
:101B4000F08100BFA168306F012905D0052955D16A
:101B500040F004003067306F40F00100306756E01D
:101B60000020C4F247200021C0F8801EFFF750FD7E
:101B7000054600BF706F80077FF558AFFFF748FD3F
:101B8000401B0228F6D9032002B0BDE8F08100BF57
:101B90000027C4F2472700203866FFF739FD022DE1
:101BA00005460DD13068800140F18A80FFF730FD95
:101BB000401B02284FF00300F4D902B0BDE8F081C9
:101BC0003068800173D5FFF723FD401B02284FF0DA
:101BD0000300F5D9F1E700BF00210160FFF718FD10
:101BE000054600BF306880077FF51DAFFFF710FD89
:101BF000401B02284FF00300F4D9DEE720F001007B
:101C00003067306F002920F0040030677AD0FFF78A
:101C1000FFFC054641F28837306F800700F1848071
:101C2000FFF7F6FC401BB842F6D9032002B0BDE82E
:101C3000F08100BF20F4803030603068002920F44B
:101C4000802030607AD0FFF7E3FC054630688003DF
:101C50003FF5CAAEFFF7DCFC401B6428F6D9032031
:101C600002B0BDE8F08100BF7068E16900F4800255
:101C70008A4221D1216A00F03F028A421CD147F6F4
:101C8000C071626A0140B1EB821F15D1A16A4FF6A3
:101C9000FF73C903994300F44032A1F580318A42B1
:101CA0000AD1E16A00F07060B0EB016F04D100204E
:101CB00002B0BDE8F08100BF012002B0BDE8F081B4
:101CC00004F11C052FCD084340EA8210D9034FF6DA
:101CD000FF729143A1F5803140EA056008437060CE
:101CE00001203866FFF794FC044600BF306880018D
:101CF000DDD4FFF78DFC001B02284FF00300F5D95F
:101D00005BE700BFFFF784FC054641F2883700BF60
:101D1000306F800708D5FFF77BFC401BB8424FF0BF
:101D20000300F5D949E700BFB8F1000F3FF581AED8
:101D3000306C20F0805030647BE600BFFFF768FC19
:101D4000054600BF306880037FF54EAEFFF760FCAC
:101D5000401B64284FF00300F4D92EE7411E0020F9
:101D6000B0EB116F1CBF012070474EF21002CEF293
:101D7000000251604EF62351CEF20001F0230B70A9
:101D800007219060116070477047000070470000A5
:101D90007047000070B504460068C5680669B10761
:101DA00016D515F0020113D06FF002010161012177
:101DB00021778069800703D02046FFF7E9FF05E01F
:101DC000204600F08FF8204600F08EF800202077A3
:101DD000700719D515F0040016D020686FF00401C3
:101DE000016102212177806910F4407F04D02046F0
:101DF000FFF7CEFF06E000BF204600F073F8204654
:101E000000F072F800202077300717D515F0080091
:101E100014D020686FF00801016104212177C069A6
:101E2000800703D02046FFF7B3FF05E0204600F00F
:101E300059F8204600F058F800202077F00619D510
:101E400015F0100016D020686FF010010161082114
:101E50002177C06910F4407F04D02046FFF798FF37
:101E600006E000BF204600F03DF8204600F03CF8B8
:101E700000202077F00718BF15F0010002D13006CE
:101E800009D412E020686FF001010161204600F0E2
:101E90002DF8300609D515F0800006D020686FF0C7
:101EA000800101612046FFF76FFF700609D515F02C
:101EB000400006D020686FF040010161204600F02C
:101EC00017F8B00658BF70BD15F0200008D0216883
:101ED0006FF0200220460A61BDE87040FFF756BF50
:101EE00070BD0000704700007047000070470000A0
:101EF00070470000002804BF0120704710B5044659
:101F000090F8410028B9002084F84000204600F0F5
:101F100021F8242084F841002068C16821F4005190
:101F2000C160204600F0F0F92068016921F4904179
:101F30000161416921F02A014161C16841F4005108
:101F4000C16000202021606484F8411084F84210B0
:101F5000606310BD80B586B044F200410068C4F2F1
:101F60000001002288420592CDE9032202920192EB
:101F700002D006B080BD00BF43F630000092C4F22C
:101F80000200036943F400330361036903F400337F
:101F90000093009B0092036843F001030360006814
:101FA00000F00100009000980C2001900220CDE983
:101FB0000202032004900720059001F5DE3001A9FC
:101FC000FFF750FA06B080BD2DE9F04381B004461A
:101FD00090F84100202809D100294FF0010018BFD6
:101FE000002A07D101B0BDE8F08300BF022001B094
:101FF000BDE8F0830020606421201D460E4684F871
:1020000041001746FFF704FBA784E784A1688146D7
:10201000B1F5805F02D1206900285DD037460020ED
:10202000E28C2168002A5DD06A1C24D0002D4AD0A1
:10203000804600BF0868000608D4FFF7E9FAA0EB65
:102040000900A8427AD82168C868F3E717B117F8E1
:10205000010B04E038F8020B00276FF35F204860A3
:10206000E08C0138E084E08C0028E3D13AE000BF46
:102070000A68120609D40A68120606D40A6812060B
:102080005CBF0A685FEA0262F2D51FB117F8012B44
:1020900005E000BF30F8022B00276FF35F224A6093
:1020A000E28C013AE284E28C002AE4D11AE000BF1B
:1020B00030F8022B00276FF35F224A60E28C013A6E
:1020C000E284E28C72B10A68120635D5002FEFD097
:1020D00017F8012BF1E700BF00273046E28C21689A
:1020E000002AA1D1086840061ED42DB3681C14D163
:1020F000086840062AD40868400627D408684006C5
:1021000024D4086840064FF00000F1D50DE000BF70
:102110002068C1680068400618D4FFF779FAA0EB80
:102120000900A842F4D909E00020202184F84110D8
:1021300001B0BDE8F08300BFFFF76AFA0320202159
:1021400084F8411001B0BDE8F08300BF00202021D9
:1021500084F8411001B0BDE8F0830000FEE7000004
:10216000B0B584B040F2E00001220024C2F20000C9
:1021700042F20001C0F60072C4F201010125C0E97B
:102180000A2403220394057680F82040C26180F877
:102190003050C0E90014C0E90244C0E90454FEF71D
:1021A0008DFD002818BFFEF7E3FC0720029040F2E7
:1021B000E000C2F200006946CDE90045FEF7DCFC14
:1021C000002818BFFEF7D4FC0120009002200190E7
:1021D00040F2E000C2F200006946FEF7CDFC0028A4
:1021E00018BFFEF7C5FC042000900320019040F2C8
:1021F000E000C2F200006946FEF7BEFC002818BFEE
:10220000FEF7B6FC04B0B0BD80B582B000200190EE
:1022100043F63000C4F202000168002241F480015C
:1022200001600068002100F48000019001983820CE
:10223000FFF770FA382002B0BDE88040FFF758BAC7
:1022400083B0002043F630010290C4F202010A6814
:1022500042F080020A600A6802F080020292029A4A
:1022600001900A6842F001020A600A6802F0010265
:102270000192019A0090086840F002000860086826
:1022800000F002000090009803B0704780B540F263
:10229000182044F20041C2F20000C4F20001002301
:1022A0004FF00C0C4FF4165280E80E00C0E90333D7
:1022B000C0E905C3C361FFF71DFE002808BF80BD4C
:1022C000BDE88040FEF754BCFEE70000FEE70000DA
:1022D0007047000070470000FFF7A0B94EF6885025
:1022E000CEF20000016841F4700101607047000007
:1022F00040F28810C2F20000FFF74CBD40F2D0104F
:10230000C2F20000FFF746BDB0B50446006804F114
:1023100008030ECB0569194325F440552A43026191
:102320006269E3691143C268194349F20C639A4335
:102330001143C1604169A26921F4407141F2004337
:10234000114340F48062C4F201039A42416103D117
:10235000FFF7E2FA02E000BFFFF7CAFAE1694FF6C1
:102360009C7563681922C0F6FF75B1F5004FA0FB9C
:1023700002011FD15A00DB0FFDF7B6FF48F21F51D3
:10238000C5F2EB11A0FB01235A0905F1805302FBB2
:102390000300322303EBC000A0FB01014FF4F870EF
:1023A00000EA111000EB0210C1F342110844216849
:1023B0008860B0BD9A009B0FFDF796FF48F21F5151
:1023C000C5F2EB11A0FB01235A0902FB05003223E1
:1023D00003EB0010A0FB0101F02000EA511000EB1C
:1023E0000210C1F34311084421688860B0BD0000A9
:1023F000FEE7000092B047F20005C4F20005FFF7C7
:102400001BF906AC20463021FEF72FFA002743F6D1
:1024100030060597CDE90377CDE901770097C4F23F
:1024200002063069022140F08050306130694FF07F
:10243000010900F0805000900098009728684FF044
:10244000100861F38F302860286800F44040009045
:10245000009820460691CDF82490CDF828800C975E
:10246000FFF7A6FA0F20CDE9010701A80021CDE969
:1024700003770597FFF78AF9FFF7E2FEFFF7C4FE3F
:10248000FFF76EFEFFF702FF0697306806A940F0DF
:1024900002003060306800F0020006900698CDE936
:1024A000068905F5CA3948460A97CDE90877FEF747
:1024B000D9FF40F2E00540F2700A40F21828C2F25B
:1024C0000005C2F2000A40F6B73BC2F2000825E060
:1024D00042F259670022C0F6000720EAE07648463B
:1024E0001021FFF78FF8DAF808200AF10C042046D3
:1024F00039463346FDF770FF2046FEF797F982B262
:10250000404621464FF0FF33FFF75EFDDAF8080042
:10251000CAF804004FF4FA70FEF790FF2846FEF761
:1025200057FD28464FF0FF31FEF7D2FC2846FEF754
:10253000C1FBCAF808002846FEF7D2FDDAE901011E
:10254000081A594501EB40000AD8584508DC9AF8AA
:10255000002009097C2900D84AB9002AB8D109E02D
:1025600009097C294FF001018AF80010B0D8002138
:102570008AF80010012201A7AFE700BF416D616E2C
:102580002E20416B7475616C3A20256C75207C207F
:1025900050726564696B73693A20256C640D0A009A
:1025A00030380A2801D2012070470020704700000F
:1025B00010B500290AD00878002807D005487844CB
:1025C000FEF786FA002801D0002010BD02487844AA
:1025D00010BD0000EE000000E6000000F1EE100A61
:1025E0004FF6FF71C0F2C03120EA010040F04070A8
:1025F000E1EE100A7047000000000000000000003B
:102600003031323334353637383941424344454628
:102610004030580030313233343536373839616222
:102620006364656640307800040000080000000024
:102630000000000200010000100000000000000087
:10264000000102030406070809000000000102035C
:102650000400061016000610164241484159412157
:1026600020416B7475616C3A20256C75207C20507C
:10267000726564696B73693A20256C64202D3E2075
:102680004355542D4F4646210D0A0000C02700082F
:102690000000002010000000F8010008D02700080A
:1026A0001000002058080000180200081001000067
:1026B00043000000F8FFFFFF004040404040404022
:1026C0004040414141414140404040404040404005
:1026D00040404040404040404005020202020202A9
:1026E00002020202020202020220202020202020F8
:1026F000202020020202020202029090909090900C
:1027000010101010101010101010101010101010C9
:10271000101010100202020202028888888888883D
:102720000808080808080808080808080808080829
:102730000808080802020202400000000000000031
:102740000000000000000000000000000000000089
:102750000000000000000000000000000000000079
:102760000000000000000000000000000000000069
:102770000000000000000000000000000000000059
:102780000000000000000000000000000000000049
:102790000000000000000000000000000000000039
:1027A0000000000000000000000000000000000029
:1027B0000000000000000000000000000000000019
:1027C00001000000100000000024F40000000000E0
:040000050800019559
:00000001FF
